:100000007BEF04F0F76A140FF66E000EF72209007A
:10001000F5501200313233413435364237383943E6
:100020002A3023440C000C005055455254412031D5
:100030002943414D424941520A00414249455254E7
:1000400041203229434552524152000050554552F9
:10005000544120312943414D424941520A00414215
:1000600049455254412032294345525241520000E1
:100070000C000C00082008000C000C00494E5445F0
:100080004E544520454E203A00000820080820081C
:1000900000000C00434C415645203A200000082047
:1000A00008000C000C000C00494E494349414E44E5
:1000B0004F000C000820080008200800DE6BDC510F
:1000C000DE5D0BE2036ADE51DA25E96EDB510320C7
:1000D000EA6EDDC0EFFFDE2BF2D71200EA6AE60E11
:1000E000E96EEF500DE0020E016E006A002EFED7A1
:1000F000012EFBD7970E006E002EFED7EF2EF3D702
:100100001200ED39F00B006E0F0E8C1400108C6E87
:1001100000008C8000D000D08C9012008350006EC4
:1001200000380F0B016E12000F0E9514F009956E3A
:100130008C8400008C800000F1DF01C0EDF08C9019
:1001400000008C8000D0EADF01C0ECF08C900F0E34
:100150009514956EED39006EF00E00160050EC11FE
:10016000016EB8EF00F09590959295948C92DCD743
:1001700001C0ECF001BEFBD78C92EAB18C8200008A
:100180008C9400008C90EB39EC6F0F0EEC17ECC0E8
:10019000EDF0B7DFEB510F0BEC6FED6FB2DF12003C
:1001A000280ECF6F0C0ED06F010ED16F060ED26FDE
:1001B0008C908C928C940F0E9514956E95909592D0
:1001C00095940F0EE66F8ADF010ECE6FCE510308B5
:1001D00008E3030EED6F95DF050EE66F7FDFCE2B94
:1001E000F5D7020EED6F8DDF050EE66F77DFCE6B74
:1001F000CE5103080FE3036ACE51CF0FE96E000E14
:100200000320EA6EEFCFD3F0EA6BD3C0EBF0ABDFA5
:10021000CE2BEED756EF01F0E72D01D003D0400EE4
:10022000E86F01D0E86B010EE65DE827E851800930
:10023000E96FEA6BEB6F97DF1200E551070A07E001
:100240000B0A0AE0060A10E0020A14E018D0010EB8
:10025000E66FE76FE1DF18D0EA6B010EEB6F83DF2B
:10026000020EE66F3BDF10D0010EE66F020EE76F65
:10027000D3DF0AD0EA6B100EEB6F75DF05D0010EED
:10028000EA6FE5C0EBF06FDF12000900F5520CE0F9
:10029000F6CFE3F0F7CFE4F0F5CFE5F0CEDFE3C043
:1002A000F6FFE4C0F7FFF1D712007AD7050EE66F2C
:1002B000010EE76FB1DFA80EF66E000EF76EE5DFF8
:1002C000010ECC6FCC51100832E3CD6BCD5102083A
:1002D0002DE3CC51CC2BCE6FE66F020EE76F9CDF87
:1002E000E569ABDF020ED880CD55CE6F010E006EF2
:1002F000CE51016E04E0D8900036012EFCD700509C
:1003000082121E0EE66FEADE020ED880CD55CE6F49
:10031000010E006ECE51016E04E0D8900036012E21
:10032000FCD70050FF0A8216CD2BD0D7CBD7B20E08
:10033000F66E000EF76EA9DF19EF05F0EF520FE031
:10034000EACFE2F0E9CFE1F0EFCFE5F076DFE2C00F
:10035000EAFFE1C0E9FFE92AD8B4EA2AEFD71200A0
:10036000E36BF00E936E816AE46BE451030846E39D
:10037000010E006EE451016E04E0D8900036012EAB
:10038000FCD700508112E56BE551030829E3040E08
:10039000E525E66F81CF00F0E651016E04E0D890CC
:1003A0000032012EFCD700A019D0E451040DF35007
:1003B000E76BE66F036AE551E625016EE75103221C
:1003C0000150F2CFE6F0F29E1DDEE6BFF28EE36F43
:1003D0002D0EE66F83DEE3C001F012D0E52BD4D7FB
:1003E000010E006EE451016E04E0D8900036012E3B
:1003F000FCD70050FF0A8116E42BB7D7E3C001F009
:100400001200E06BE56919DFE16BE151050812E3C9
:100410000A0EE66F63DEA4DF01C0E0F0E05308E0FF
:10042000B40EF66E000EF76E30DFE0C001F01AD0A9
:10043000E12BEBD7B80EF66E000EF76E26DFE26BFF
:10044000E25105080DE30A0EE66F48DE89DF01C0C0
:10045000E0F0E05303E0E0C001F004D0E22BF0D77D
:10046000E0C001F01200020EE66F010EE76FD4DE6D
:10047000DDC0EAFFDCC0E9FF61DF030EE66F020EBC
:10048000E76FCADE940EF66E000EF76EFEDEDE6BD0
:10049000DF6BB7DF01C0DFF0DE5103081BE3DF5184
:1004A0002F0818E2DF51390815E32A0EE56FC5DE83
:1004B000DE51DE2B036ADA25E96EDB510320EA6E9A
:1004C000DFC0EFFF036ADE51DA25E96EDB5103205E
:1004D000EA6EEF6ADF51410810E1DE530EE0DE51B3
:1004E000DE07036ADA25E96EDB510320EA6EEF6A64
:1004F0009E0EF66E000EF76EC8DEDF514408C9E1AD
:10050000DE53C7E0A20EF66E000EF76EBEDE1200DE
:10051000DAC0E9FFDBC0EAFFEFCFDEF0DDC003F0B9
:10052000DCC0E9FFDDC0EAFFEF50DE5D15E1DBC0B6
:1005300003F0DAC0E9FF03C0EAFFEF5203E1000E67
:10054000016E1FD0DBC003F0DA51DA2BD8B4DB2BFD
:10055000DC2BD8B4DD2BDCD7DBC003F0DAC0E9FF3D
:10056000DBC0EAFFEFCFDEF0DDC003F0DCC0E9FF67
:10057000DDC0EAFFEF50DE5D02E2FF0E01D0010EAA
:10058000016E1200010EE06FE05103083CE3DCC095
:10059000E6F0DDC0E7F040DEDBC0EAFFDAC0E9FFED
:1005A000CDDEDE5306E0DE2D01D003D0DE510208A1
:1005B00023E1010E006EDE51016E04E0D89000369A
:1005C000012EFCD7005082125F0EE66F87DDA40E6D
:1005D000F66E000EF76E59DE010E006EDE51016EF2
:1005E00004E0D8900036012EFCD70050FF0A821696
:1005F0002D0EE66F73DD05D0A60EF66E000EF76EBB
:1006000044DEE02BC1D7DE5306E0DE2D01D003D05F
:10061000DE5102080DE1DF530BE0010E006EDE51EA
:10062000016E04E0D8900036012EFCD700508212F3
:100630001200DE6BDF6B020EE66F010EE76FECDD82
:10064000DDC0EAFFDCC0E9FF79DE060EE66F020ED0
:10065000E76FE2DDD6DE01C0DFF0DE51030813E311
:10066000DF512F0810E2DF5139080DE32A0EE56F44
:10067000E4DDDE51DE2B036ADA25E96EDB5103206F
:10068000EA6EDFC0EFFFDF51410810E1DE530EE0FC
:10069000DE51DE07036ADA25E96EDB510320EA6EDC
:1006A000EF6A740EF66E000EF76EEFDDDF51440850
:1006B000D1E1DE510408CEE1040EDA25E96E000E28
:1006C000DB21EA6EEF6A780EF66E000EF76EDDDD66
:1006D0001200DD51016ADC5D03E2DCC000F00CD0E9
:1006E000006A080EDE6FDC370036DD51005CD8B0E2
:1006F000006E0136DE2FF7D712007A0EF66E000E6E
:10070000F76EC3DD8282030EE66F010EE76F84DDB4
:100710007C0EF66E000EF76EB8DD080EE66F020E68
:10072000E76F7ADDDAC0DBF0DB531EE0DBC0DCF024
:100730000A0EDD6FCEDF0150300FDC6FE56F7DDD1F
:10074000DBC0DCF00A0EDD6FC4DF0050300FDC6F61
:10075000E56F73DDFA0EE66FC1DC8A0EF66E000EF1
:10076000F76E93DDDB07E0D78292920EF66E000EF5
:10077000F76E8BDD1200DB6BCF0EDA6F050EDC6FD0
:10078000DD6B9CDC720EF66E000EF76E7EDDD46BB8
:10079000D4510108D8A072D0DB6BCF0EDA6F15C030
:1007A000DDF014C0DCF05FDEDB6BC10EDA6FDD6BF9
:1007B000CF0EDC6FADDE015253E1D46BD451010892
:1007C0004EE3DB6BCF0EDA6F050EDC6FDD6B76DC94
:1007D000DB6BD50EDA6F050EDC6FDD6B6FDCDB6B70
:1007E000CF0EDA6F0DC0DDF00CC0DCF022DFDB6B6A
:1007F000D50EDA6F0FC0DDF00EC0DCF01ADFDB6B58
:10080000CF0EDA6FDD6BD50EDC6F82DE015219E19F
:10081000EA6AC10EE96EE26AD50EE16EE752E6CFF2
:10082000EEFFFCE111C0DBF010C0DAF0070EDC6F68
:10083000010EDD6FDE6BDF6FA5DE000E016E23D0D3
:100840000CD017C0DBF016C0DAF0070EDC6F010E1B
:10085000DD6F020EDE6FDF6B95DED42BAFD70CD0D1
:1008600007C0DBF006C0DAF0070EDC6F010EDD6FAB
:10087000020EDE6FDF6B86DED42B8AD70A0EDA6FAC
:100880003CDF010E016E5AEF04F0CE6B280EF66EBF
:10089000000EF76EFADC3A0EF66E000EF76EF5DC1F
:1008A0005FDD01C0CEF0CE51310A03E0030A0DE056
:1008B0001DD061D74C0EF66E000EF76EE6DC5E0EB4
:1008C000F66E000EF76EE1DC11D0700EF66E000EC3
:1008D000F76EDBDC8290CDC0DBF0CCC0DAF0060E28
:1008E000DC6F010EDD6FDE6FDF6B4CDECE51320848
:1008F000D7E140EF05F0F86AD09E700ED36ED3506A
:10090000C150C00B0F09C16E070EB46E67D0020054
:100910000400001D0018434C4156450A2020204980
:100920004E434F5252454354410041425249454E75
:10093000444F0A06C0201080505545525441004390
:10094000455252414E444F0A06C0207080505545D2
:10095000525441004E5545564120434C41564500A6
:10096000434F4E4649524D415220434C415645005B
:10097000434C4156450A20202041435455414C499F
:100980005A4144410050554552544120434552522A
:100990004144410020434C41564520414354554178
:1009A0004C004C415320434C415645530A202020D3
:1009B0004E4F20434F494E434944454E00120006D6
:1009C00018002C0042005800640074008900980050
:1009D000A6000500C131323334000000000EF86E6D
:1009E000090EF76E0E0EF66E0900F550006E000A45
:1009F00013E00900F550016EE8BE05D00F0BEA6E5A
:100A00000900F5CFE9FF01BC090001AC0900F5CFF1
:100A1000EEFF004EE9D7F9D7F86AC66B946A826A8E
:100A2000DB6BC70EDA6F050EDC6FDD6B5EEC00F082
:100A30003CD4DB6BC70EDA6F13C0DDF012C0DCF004
:100A400012DDDB6BC10EDA6FDD6BC70EDC6F60DDB4
:100A5000015218E1240EF66E000EF76E16DC09C086
:100A6000DBF008C0DAF0060EDC6F010EDD6FDE6F22
:100A7000DF6B88DD82800BC0CDF00AC0CCF005D7DB
:100A8000C66B14D007C0DBF006C0DAF0070EDC6FCF
:100A9000010EDD6F020EDE6FDF6B74DDC62BC651FB
:100AA000020804E1140EDA6F28DEC66B260EF66E1D
:0C0AB000000EF76E45EC01F0BCD703000F
:020000040030CA
:0E0000003FC83E1E0087A1000FC00FE00F405A
:00000001FF
;PIC18F4550
;CRC=160E  CREATED="23-abr.-24 22:55"
