:100000001CEF0AF0F76A140FF66E000EF7220900D3
:10001000F5501200000000000000005F0000000723
:10002000000700147F147F14242A7F2A1223130848
:10003000646236495620500008070300001C224124
:10004000000041221C002A1C7F1C2A08083E0808C8
:100050000080703000080808080800006060002078
:10006000100804023E5149453E00427F400072495B
:100070004949462141494D331814127F10274545FF
:1000800045393C4A49493141211109073649494915
:1000900036464949291E0000140000004034000083
:1000A00000081422411414141414004122140802EC
:1000B000015909063E415D594E7C1211127C7F495F
:1000C0004949363E414141227F4141413E7F4949B4
:1000D00049417F090909013E414151737F080808E0
:1000E0007F00417F41002040413F017F08142241B1
:1000F0007F404040407F021C027F7F0408107F3E0B
:100100004141413E7F090909063E4151215E7F0977
:1001100019294600F76A240FF66E010EF72209002E
:10012000F5501200264949493203017F01033F403F
:1001300040403F1F2040201F3F4038403F6314088D
:10014000146303047804036159494D43007F41411E
:10015000410204081020004141417F0402010204D1
:100160004040404040000307080020545478407F3E
:10017000284444383844444428384444287F385478
:1001800054541800087E090218A4A49C787F08041F
:10019000047800447D40002040403D007F1028440A
:1001A0000000417F40007C047804787C08040478D7
:1001B0003844444438FC1824241818242418FC7C9F
:1001C00008040408485454542404043F44243C4084
:1001D00040207C1C2040201C3C4030403C442810E7
:1001E00028444C9090907C4464544C440008364120
:1001F00000000077000000413608000201020402FE
:10020000F76A100FF66E020EF7220900F550120081
:10021000436F6E74726F6C2050574D00F76A2C0F4D
:10022000F66E020EF7220900F550120054656D704B
:10023000657261747572613A2000F76A4A0FF66E52
:10024000020EF7220900F5501200507263656E74B9
:10025000616A653A0000040EEA6E3E0EE96EEF50E8
:100260000DE0020E016E006A002EFED7012EFBD7B4
:10027000970E006E002EFED7EF2EF3D71200080E59
:10028000016E00008A9293920000040141378A9027
:10029000D8B09380D8A09390938281A2FED7012EEC
:1002A00001D002D00001EDD700008A9293920000A5
:1002B000938000000000938281A2FED7016A0000B3
:1002C00081B001808A9293928A90939000011200EB
:1002D0000401406B93800000938200008A90939009
:1002E00000008A92939204C041F40001C8DF40C428
:1002F00041F4C5DF3FC441F4C2DF93900000938214
:1003000081A2FED7000000D0000093800000120000
:100310003CC405F03DC404F00A0E04013E6F000128
:100320009ADFAE0E04013F6F0001D2DFD50E04014B
:100330003F6F0001CDDF800E04013F6F0001C8DF79
:10034000A80E04013F6F0001C3DF3F0E04013F6FA1
:100350000001BEDFD30E04013F6F0001B9DF0401CD
:100360003F6B0001B5DF400E04013F6F0001B0DFBD
:100370008D0E04013F6F0001ABDF04013C2D06D060
:10038000100E3F6F0001A4DF05D00401140E3F6F73
:1003900000019EDF200E04013F6F000199DF040180
:1003A0003F6B000195DFA10E04013F6F000190DF5C
:1003B000C80E04013F6F00018BDFDA0E04013F6FAE
:1003C000000186DF120E04013F6F000181DF810E04
:1003D00004013F6F00017CDF04013C2D06D09F0E1D
:1003E0003F6F000175DF05D00401CF0E3F6F0001A4
:1003F0006FDFD90E04013F6F00016ADF04013C2D5D
:1004000006D0220E3F6F000163DF05D00401F10E1C
:100410003F6F00015DDFDB0E04013F6F000158DF1D
:10042000400E04013F6F000153DFA40E04013F6F33
:1004300000014EDFA60E04013F6F000149DF2E0EC2
:1004400004013F6F000144DFAF0E04013F6F000164
:100450003FDF066A076A010E086EB3EF0BF0040176
:100460003D6B3C6B3D5103080BE30A0E3C25E96EE6
:10047000000E3D21EA6EEF6A3C2BD8B43D2BF2D73B
:100480000001B5EF0BF0210E04013F6F000120DFEA
:1004900004013F6B00011CDF7F0E04013F6F000170
:1004A00017DF220E04013F6F000112DF04013F6BD2
:1004B00000010EDF070E04013F6F000109DF040198
:1004C0003D6B3C6B3D5103083BE3938000009382FE
:1004D00000008A90939000008A92939204C041F4A5
:1004E0000001CDDE400E0401416F0001C8DE0401B1
:1004F0003E6B3E510F0812E30A0E3C25E96E000EDA
:100500003D21EA6EEFCF3FF43FC441F40001B7DE76
:1005100004013C2BD8B43D2B3E2BEBD73C51D8B437
:100520003D073C0793900000938281A2FED7000014
:1005300000D00000938000003C2BD8B43D2BC2D7E4
:1005400000011200040143517F0803E344513F08B6
:1005500001E204D043C406F044C407F0000141EFB7
:1005600005F00401435302E1010E436F43C408F058
:10057000000144EF05F004016F517F0803E370515F
:100580003F0801E26ED0715336E07031006E0032E8
:1005900000321F0E00160050736B726F7235026EC0
:1005A0007335036E023603360236033602360336DF
:1005B000023603360236033602360336800E021642
:1005C00002506F25726F000E0320736F0A0E7225A2
:1005D000E96E000E7321EA6E7051070B016E010E79
:1005E000006E015204E0D8900036012EFCD7005076
:1005F000EF10EF6E36D07031006E003200321F0EF9
:1006000000160050736B726F7235026E7335036E95
:100610000236033602360336023603360236033616
:100620000236033602360336800E021602506F255C
:10063000726F000E0320736F0A0E7225E96E000EB2
:100640007321EA6E7051070B016E010E006E0152AC
:1006500004E0D8900036012EFCD70050FF0AEF14BA
:10066000EF6E00011200040161915A515E5D6F6FDF
:100670005B515F59706F036E6F5170AF08D0000E01
:10068000D8806F55006E000E7055036E00506F6F6E
:1006900003C070F458515C5D716F59515D59726FB0
:1006A000036E715172AF08D0000ED8807155006E84
:1006B000000E7255036E0050016E03AE03D070AF92
:1006C0000AD002D070BF08D00350705D05E303E18B
:1006D0006F51015C01E2618161A118D059C468F4D5
:1006E00058C467F45BC459F45AC458F468C45BF442
:1006F00067C45AF45DC46AF45CC469F45FC45DF411
:100700005EC45CF46AC45FF469C45EF45DAF03D098
:1007100059AF0AD002D059BF1FD05D51595D1CE3BB
:1007200003E158515C5D18E259C46CF458C46BF491
:100730005DC459F45CC458F46CC45DF46BC45CF4DF
:100740005BC46EF45AC46DF45FC45BF45EC45AF4C7
:100750006EC45FF46DC45EF458515C5D006E595117
:100760005D5900C063F45A515E5D6F6F5B515F5914
:10077000706F036E6F5170AF08D0000ED8806F5548
:10078000006E000E7055036E0050646FD890633198
:10079000036A656F03C066F45BAF03D05FAF0AD036
:1007A00002D05FBF0AD05B515F5D07E303E15E519A
:1007B0005A5D03E2010E626F01D0626959AF03D046
:1007C0005DAF0AD002D05DBF47D059515D5D44E3B3
:1007D00003E158515C5D40E361A115D060530AE02C
:1007E0005AC46FF458C470F4010E716F0001C3DE77
:1007F00008D004015AC46FF458C470F4716B00013E
:10080000BADE14D0040160530AE058C46FF45AC42D
:1008100070F4010E716F0001AEDE08D0040158C4FF
:100820006FF45AC470F4716B0001A5DE04016451C9
:10083000655F000E665B66AF0BD0036A6251E8BE6F
:1008400003065A2703505B2363516527000E662376
:10085000582BD8B4592BB2D70001120004015551BE
:100860005425FF0F576F596B53C458F45B6B54C436
:100870005AF45D6B53C45CF45F6B5E6F56C460F4F6
:100880000001F1DE1200036A04014CC451F403C0FC
:1008900052F44E514C2552BF04D0525311E1515DD8
:1008A0000FE251C453F44DC454F44FC455F450C432
:1008B00056F40001D3DF0401512BD8B4522BE9D7F1
:1008C0000001120004014451200805E1065203E131
:1008D00009A001D0CED04451070804E1076A07C03F
:1008E00006F0C7D0445108080AE10850060DF3503D
:1008F000065C05E30850060DF350065EBAD044517D
:100900000D0802E1066AB5D044510A080CE108500E
:10091000080DF35007260850070DF3500724400830
:1009200001E2076AA6D044511F0803E244517E0841
:1009300002E23F0E446F466B4651040864E34451A3
:10094000520812E3200E445D050DF3504625036A5C
:10095000F2CF49F4F29E000102EC00F0040149BF1D
:10096000F28E016E486F10D0530E445D050DF350AA
:100970004625036AF2CF49F4F29E00018AEC00F0AA
:10098000040149BFF28E486F476B4751060839E3AF
:1009900048A102D0458101D04591082C13D0465181
:1009A0000624496F475107244A6F000E45B1010ED6
:1009B0004B6F49C46FF44AC470F4716F0001DBDD02
:1009C0001AD0040146510802F3500624496F4751DA
:1009D0000802F35007244A6F000E45B1010E4B6F19
:1009E00049C44CF44AC44DF408C04EF408C04FF456
:1009F000506F000148DF04014751472BD89048331E
:100A0000C4D7462B99D70850050DF3500624496FDB
:100A10000850070DF3CF4AF449C44CF407C04DF415
:100A200008C04EF44AC44FF4506B00012CDF08504C
:100A3000060DF35006260850060DF350800F065C95
:100A400003E002E3800E066E09A012D00850050DE7
:100A5000F350062480080CE2066A0850080DF35093
:100A600007260850070DF3500724400801E2076AE3
:100A70000401000144EF05F03EC443F43FC444F4D4
:100A800061D542C443F46DD541C403F0040140C4B0
:100A9000E9FF41C4EAFFEF5212E041C403F04051C4
:100AA000402BD8B4412BE96E03C0EAFFEFCF43F4EB
:100AB00043C444F4000106D70001E6D70401000155
:100AC0001200040143514125FF0F456F596B41C48A
:100AD00058F45B6B42C45AF45D6B5C6F5F6B42C44D
:100AE0005EF444C460F40001BEDD12003CC441F475
:100AF0003DC442F43EC443F4010E0401446F0001BE
:100B0000E0DF04013F513D25FF0F406F3CC441F43D
:100B1000426F3EC443F4010E446F0001D2DF3CC477
:100B200053F43DC454F43FC455F4010E0401566F10
:100B3000000194DE04013E513C25FF0F406F536FCE
:100B40003DC454F43FC455F4010E566F000186DED7
:100B5000E6EF0BF08E0E006E3DC401F03CC402F0D7
:100B6000036A015209E102C001F0026A080E005E48
:100B7000015202E1006A08D0D89001BE04D00236CA
:100B800001360006F9D7019E120004014051D8B485
:100B9000A5D04C6F4451D8B4A1D04C5F05E37F0E73
:100BA0004C27D8B09BD006D0810E4C5FD8A096D0F1
:100BB000D8B494D04CC400F0016A026A036A4B6B4B
:100BC00041C44AF44A8F42C449F443C448F4190E5C
:100BD0004C6F4751485F0DE2010E495F0AE24A5FE0
:100BE00008E24B5F06E24B2B4A2B492B4751482723
:100BF00028D04651495F12E2010E4A5F0FE24B5F77
:100C00000DE24B2B4A2B465149274751482719E300
:100C1000492B17E14A2B15E14B2B13D04551800985
:100C20004A5F0EE2010E4B5F0BE24B2B45518009F0
:100C30004A2746514927E9E34A2BE7E14B2BE5D701
:100C400003804C2F01D00BD0D890483749374A3712
:100C50004B37D8900336023601364D37BAD74DA1FF
:100C600006D0D8900132023203324D3302D0000652
:100C700035E04DBF1ED0D890483749374A374B37FB
:100C80004751485F07E2010E495F04E24A5F02E212
:100C90004B5F1AE34651495F05E2010E4A5F02E2EB
:100CA0004B5F12E3455180094A5F03E2010E4B5F3F
:100CB0000BE3032A09E1022A07E1012A05E1002AE0
:100CC0000DE001320232033241C44CF445514C1B59
:100CD0004CAF02D0018E06D0019E04D0006A016A9A
:100CE000026A036A0001120004014951D8B471D0AC
:100CF000006E4D51D8B46DD0002604E3810E00265D
:100D000068E204D07F0E005E64E363E04AC451F4FD
:100D10004E51511B4A8F4E8F4C515003F4CF53F418
:100D20004B514F03F4CF03F0F3CF52F45003F35081
:100D30005327F4505223000E03224C514F03F3501B
:100D40005327F4505223000E026A032202224A5112
:100D50005003F3505227F4500322000E02224A514E
:100D60004F03F3500326F4500222000E016A0122C1
:100D70004C514E03F3505227F4500322000E02222E
:100D800001224B514E03F3500326F4500222000E71
:100D900001224A514E03F3500226F4500122002A48
:100DA00001BE05D052370336023601360006000E6A
:100DB00052AF0AD0032A02220122015005E102505B
:100DC00003E1035001E1002A51BF018E51AF019EA2
:100DD00004D0006A016A026A036A000112001FC49B
:100DE000EAFF1EC4E9FF040149C4EFFFE92AD8B4B1
:100DF000EA2AEF6A1E2BD8B41F2B00011200EACF9B
:100E000044F4E9CF43F404013D39F0093F6F3F2733
:100E1000E20F406F320F426F3D510F0B40274027CA
:100E20004227E90F416F412741273C390F0B4127EA
:100E3000422741374237421F42373C510F0B42276E
:100E40003F37070E3E6F0A0E41074227FDE340077A
:100E50004127FDE33F074027FDE33E073F27FDE332
:100E6000040EEA6E3E0EE96E070E4315439DE92619
:100E7000000EEA22E950420804E1EA50040801E1C8
:100E8000438DEF50006E08E143BD06D043B915D045
:100E900043B702D0200E03D043874399300E00267B
:100EA000EACF3DF4E9CF3CF400C049F4000197DFFC
:100EB0003DC4EAFF3CC4E9FF0401EE5043ADDAD77C
:100EC0000001BDEF0CF004014951B608496F036AF7
:100ED0004AC44DF44A8FD8904A334B334C330332D3
:100EE000023201320032492FF6D74DAF0BD0001E2F
:100EF000011E021E031E002AD8B4012AD8B4022AF9
:100F0000D8B4032A0001FAEF07F0D8B204D0040ED7
:100F1000EA6E510EE96E006A016A026A036A040110
:100F2000516B526B536B546B50514F114E114D110D
:100F30002CE0200E556FD89049374A374B374C3745
:100F400051375237533754375051545D08E14F51A0
:100F5000535D05E14E51525D02E14D51515D0FE38C
:100F60004D51515F4E51D8A04E3D525F4F51D8A0C8
:100F70004F3D535F5051D8A0503D545FD88000364C
:100F8000013602360336552FD6D751C4EFFF52C46F
:100F9000ECFF53C4ECFF54C4ECFF00011200E95015
:100FA0000401416F4051436F1BE03FC44CF43EC409
:100FB0004BF43DC44AF43CC449F4506B4F6B200ED3
:100FC0004E6F820E4D6F00018FDE03C03FF402C0F2
:100FD0003EF401C03DF400C03CF40401432FE5D7CA
:100FE0003FC44CF43EC44BF43DC44AF43CC449F401
:100FF000000169D703C03FF402C03EF401C03DF4D4
:1010000000C03CF404013FAF0DD04107418B3C1FB1
:101010003D1F3E1F3F1F3C2BD8B43D2BD8B43E2B69
:10102000D8B43F2B3B0E486F9A0E476FCA0E466FDF
:10103000456B0A0E436F4051D8B4412BD882040E41
:10104000EA6E3C0EE96E3FC44CF43EC44BF43DC422
:101050004AF43CC449F448C450F447C44FF446C46D
:101060004EF445C44DF4000150DF0150005213E12D
:1010700004014029435DD8A402D000010CD04151A5
:101080000DE00F0B435D01E040E241BF3ED041BDAA
:1010900005D0200E34D0200E0401411741AB0ED0F4
:1010A000419B4051D8A441070050416F2D0E496F1C
:1010B000000195DE04014151006E416B4051435DDA
:1010C0000CE10050416F2E0E496F000188DE0401D3
:1010D0004151006E200E4117000E300E41AB0FD073
:1010E000419B4051D8A441070050416F2D0E496FDC
:1010F000000175DE04014151006E416B300E002687
:1011000000C049F400016BDE0401D89248C44CF4DD
:1011100047C44BF446C44AF445C449F4506B4F6B82
:101120004E6B0A0E4D6F0001F0DE03C048F402C0A2
:1011300047F401C046F400C045F40401432F7ED7B4
:1011400000011200800ED8A202D00401411B04014C
:10115000466B476B3DC445F44151451B3C51D8B4E7
:10116000DFD0446F006E4051D8B4E3D0445FD8B4B0
:1011700083D03EE341C44AF44A8F42C449F443C495
:1011800048F4476BD8904A33493348334733442FA8
:10119000F8D745AF03D04681E0D0469144914689C7
:1011A000040EEA6E3F0EE96EEBD0469945BF0AD0B9
:1011B00044A113D04A33493348334733002AD8B4C3
:1011C000C7D00BD04ABF0CD0D890473748374937E3
:1011D0004A370006D8B4BCD0F5D7468D6DD0469DB1
:1011E0003DC445F43DAF02D04A8FABD04A9FA9D051
:1011F00040C444F440C400F03C51445F3DC44AF450
:101200004A8F3EC449F43FC448F4476BD8904A33F0
:10121000493348334733442FF8D745AF03D046838B
:101220009CD046934491468B040EEA6E430EE96EC1
:10123000A7D0469B45BF0AD044A113D04A334933B7
:1012400048334733002AD8B483D00BD04ABF0CD0E0
:10125000D8904737483749374A370006D8B478D04E
:10126000F5D7468F29D0469F41C445F441AF02D0FF
:101270004A8F67D04A9F65D041C44AF44A8F42C41E
:1012800049F443C448F445AF04D04A9F468565D02D
:101290004695476B4491040EEA6E3F0EE96E70D09E
:1012A00045BF1CD03DC445F444A106D04A33493360
:1012B00048334733002A4CE047AF0BD0482B09E1B5
:1012C000492B07E14A2B05E14A3349334833002AC9
:1012D0003FE046BD84D746BFC6D71CD0800E4A1B10
:1012E0004AAF04D03AD041C445F40AD03DC445F4D5
:1012F0004A5306E1495304E1485302E1006A21D010
:101300004ABF08D0D8904737483749374A37002E68
:10131000F7D71ED045AF02D04A8F13D04A9F11D0C5
:1013200040C400F041C44AF442C449F443C448F400
:1013300008D03CC400F03DC44AF43EC449F43FC464
:1013400048F44AC401F049C402F048C403F034D060
:10135000006A016A026A036A2FD0476B481F491F5F
:101360004A1F471F472B05E1482B03E1492B01E1A9
:101370004A2B46B112D746B354D746B589D7B3D70F
:10138000EF50482705E3492B03E14A2BD8B44481A9
:10139000ED52EF50492703E34A2BD8B44481ED5274
:1013A000EF50EFBE01D0800A4A27D8B0448146B939
:1013B000FCD646BB3ED774D7000122EF0DF03DC4EA
:1013C00044F404014151441B44AF05D0D894D89053
:1013D0003DBFD8802FD03DC444F440C445F43C51B7
:1013E000455F06E044AF26D0D850010AD86E22D01F
:1013F00041C445F43D51455F06E044AF1BD0D85091
:10140000010AD86E17D042C445F43E51455F06E04C
:1014100044AF10D0D850010AD86E0CD043C445F464
:101420003F51455F06E044AF05D0D850010AD86E61
:1014300001D0D89000011200F86AD09E700ED36ED1
:10144000D350098004011F6B1E6BC150C00B0F09E4
:10145000C16E070EB46E38D13F400A000380808011
:10146000800FC00004808080C0C03FC00008808022
:10147000C0E0F0F8FCF8E011C00005C08003800077
:10148000808004C00005C080048000FFFFFF04C00E
:101490000004C0800F8000008080000080FFFF807B
:1014A000800080800004C080038000808005C00030
:1014B0000E80808000008C8E84000080F8F8F88018
:1014C0000DC0000CC0F00C80E0E0C08000E0FCFE2D
:1014D000FFFFFF7F05C0FF0EC0000380FEFFC704B3
:1014E000C001088083FFFF00007CFEC704C00135F7
:1014F0008083FFFFFF0038FEC78301010183C7FF20
:10150000FF000001FFFF010100FFFF0701010100D3
:10151000007FFF80000000FFFF7F0000FFFFFF0053
:101520000001FFFFFF010DC0000580030F3F7F7F1B
:1015300007C0FF0C80E7C7C78F8F9FBFFFFFC3C0E7
:10154000F005C0FF08C0FC0880F8F8F0F0E0C0002B
:101550000105C003038001030304C00001800104EE
:10156000C0030880010103010000000104C0030E54
:1015700080010103030000000303000000030307D0
:10158000C00001800105C0030D80010000000103BF
:101590000100000003030111C000058080C0E0F0DD
:1015A000F905C0FF0C803F1F0F87C7F7FFFF1F1F04
:1015B0003DFC04C0F802807C7D08C0FF07807F3FAF
:1015C0000F0700303016C0000380FEFEFC16C0007E
:1015D0000280E0C00BC0000280303015C0000280E5
:1015E000C0FE09C0FF0C807F7F3F1F0F071F7FFFDA
:1015F000FFF8F805C0FF0780FEF8E00000000108D2
:10160000C0001F80FEFE000000FCFEFC0C06060E63
:10161000FCF80000F0F81C0E0606060CFFFFFF00A9
:1016200000FEFE04C0003180FCFEFC00183C7E661B
:10163000E6CE84000006FFFF0606FCFEFC0C060654
:10164000060000FEFE0000C0F8FC4E4646464E7CFA
:101650007840183C76E6CECC8014C00005800107A7
:101660000F1F1F04C03F03801F0F030CC000088022
:101670000F0F0000000F0F0F04C0002C800F0F0091
:101680000003070E0C18180C060F0F0F0000010FB7
:101690000E0C180C0F070100040E0C180C0F07009D
:1016A00000000F0F00000F0F0F06C00016800F0F75
:1016B00000000007070C0C181C0C060600040E0C9A
:1016C000180C0F0780C00000000EF86E140EF76EA5
:1016D000580EF66E0900F550006E000A13E009007E
:1016E000F550016EE8BE05D00F0BEA6E0900F5CF8C
:1016F000E9FF01BC090001AC0900F5CFEEFF004E87
:10170000E9D7F9D7F86A9268946A956A826A836A17
:10171000C150C00B0E09C16EC050C00B0109C06E94
:10172000C08EC280000E016EC250C30B0110C26E8B
:101730000C0E006E002EFED700D00000216B206B37
:10174000256B246B236B226B296B286B276B266B15
:101750002D6B2C6B2B6B2A6B020E3C6F780E3D6F42
:10176000000188EF01F02FEF02F043EC02F0040ECD
:10177000EA6E2E0EE96EF2CF3CF4F29E0C0E016E74
:10178000F76A000E00EC01F00A000900F5CFEEFF49
:10179000012EFBD704013CBFF28E1E0E3E6F010EE0
:1017A0003F6F040E416F2E0E406F010E426F00011D
:1017B0003CEC05F00A0E04013C6F0C0E3D6F6C0E04
:1017C0003E6F340E3F6F000176EF05F0410E0401CD
:1017D0002E6F440E2F6F430E306F3A0E316F200E76
:1017E000326F336B0F0E3E6F140E3F6F040E416F5E
:1017F0002E0E406F010E426F00013CEC05F0040E0E
:10180000EA6E2E0EE96EF2CF3CF4F29E0E0E016EE1
:10181000F76A000E0EEC01F00A000900F5CFEEFFAA
:10182000012EFBD704013CBFF28E0F0E3E6F230E3C
:101830003F6F040E416F2E0E406F010E426F00018C
:101840003CEC05F0040EEA6E2E0EE96EF2CF3CF48D
:10185000F29E0B0E016EF76A000E1DEC01F00A00FD
:101860000900F5CFEEFF012EFBD704013CBFF28E3D
:101870000F0E3E6F320E3F6F040E416F2E0E406F03
:10188000010E426F00013CEC05F043EC02F0000E4B
:10189000016EC250C30B0110C26E0C0E006E002E02
:1018A000FED700D00000C282C2B2FED7C4CF21F45E
:1018B0000401C3CF20F40C0E006E002EFED700D022
:1018C000000021C43DF420C43CF40001AAEC05F062
:1018D00003C043F402C042F401C041F400C040F42C
:1018E0000401476BC00E466F7F0E456F880E446F34
:1018F0000001C5EC05F004014C6B4B6B200E4A6FE8
:10190000810E496F03C050F402C04FF401C04EF481
:1019100000C04DF4000174EC06F003C025F402C0D1
:1019200024F401C023F400C022F425C44CF424C4E0
:101930004BF423C44AF422C449F40401506B4F6BA6
:10194000480E4E6F850E4D6F000174EC06F003C01B
:101950002DF402C02CF401C02BF400C02AF4040EB4
:1019600004011F6F0A0E1E6F100EE96E21C43DF4B4
:1019700020C43CF40001FFEF06F0280E04013E6F86
:10198000140E3F6F040E416F0A0E406F010E426F3E
:1019900000013CEC05F0040E04011F6F0A0E1E6FDF
:1019A000890EE96E2DC43FF42CC43EF42BC43DF4E3
:1019B0002AC43CF4010E406F0001CFEC07F0460E44
:1019C00004013E6F230E3F6F040E416F0A0E406FFD
:1019D000010E426F00013CEC05F0040E016EC25096
:1019E000C30B0110C26E0C0E006E002EFED700D08D
:1019F0000000C282C2B2FED7C4CF21F40401C3CF1B
:101A000020F40C0E006E002EFED700D0000021C482
:101A10003DF420C43CF40001AAEC05F0D882040196
:101A20003F6BC00E3E6F7F0E3D6F880E3C6F03C054
:101A300043F402C042F401C041F400C040F400018C
:101A4000A2EF08F003C03FF402C03EF401C03DF431
:101A500000C03CF403C043F402C042F401C041F4AE
:101A600000C040F40401476BC00E466F7F0E456F07
:101A7000880E446F0001C5EC05F003C03FF402C0BE
:101A80003EF401C03DF400C03CF403C04CF402C07D
:101A90004BF401C04AF400C049F40401506B4F6B91
:101AA000480E4E6F850E4D6F000174EC06F003C0BA
:101AB00029F402C028F401C027F400C026F4040E63
:101AC00004011F6F0A0E1E6F890EE96E29C43FF4D0
:101AD00028C43EF427C43DF426C43CF4010E406FF4
:101AE0000001CFEC07F05A0E04013E6F320E3F6F3B
:101AF000040E416F0A0E406F010E426F00013CEC74
:101B000005F043EC02F0640E04013E6F00012BEC83
:101B100001F029C43FF428C43EF427C43DF426C490
:101B20003CF40401436B426B400E416F830E406FE7
:101B3000000145DC16E304013F6B3E6B400E3D6F38
:101B4000820E3C6F29C443F428C442F427C441F4F4
:101B500026C440F4000133DC01E203E1010E836E90
:101B600010D129C43FF428C43EF427C43DF426C450
:101B70003CF40401436B426B100E416F840E406FC6
:101B800000011DDC16E304013F6B3E6B400E3D6F10
:101B9000830E3C6F29C443F428C442F427C441F4A3
:101BA00026C440F400010BDC01E203E1030E836E66
:101BB000E8D029C43FF428C43EF427C43DF426C429
:101BC0003CF40401436B426B400E416F840E406F46
:101BD0000001DFEC09F017E304013F6B3E6B100ED0
:101BE0003D6F840E3C6F29C443F428C442F427C4DB
:101BF00041F426C440F40001DFEC09F001E203E106
:101C0000070E836EBED029C43FF428C43EF427C417
:101C10003DF426C43CF40401436B426B700E416FEB
:101C2000840E406F0001DFEC09F017E304013F6B05
:101C30003E6B400E3D6F840E3C6F29C443F428C4B4
:101C400042F427C441F426C440F40001DFEC09F05B
:101C500001E203E10F0E836E94D029C43FF428C43F
:101C60003EF427C43DF426C43CF40401436B426BAC
:101C7000100E416F850E406F0001DFEC09F017E395
:101C800004013F6B3E6B700E3D6F840E3C6F29C4A8
:101C900043F428C442F427C441F426C440F40001AC
:101CA000DFEC09F001E203E11F0E836E6AD029C464
:101CB0003FF428C43EF427C43DF426C43CF4040198
:101CC000436B426B280E416F850E406F0001DFECC5
:101CD00009F017E304013F6B3E6B100E3D6F850E5C
:101CE0003C6F29C443F428C442F427C441F426C4F9
:101CF00040F40001DFEC09F001E203E13F0E836EE6
:101D000040D029C43FF428C43EF427C43DF426C47F
:101D10003CF40401436B426B480E416F850E406FEB
:101D20000001DFEC09F017E304013F6B3E6B280E66
:101D30003D6F850E3C6F29C443F428C442F427C488
:101D400041F426C440F40001DFEC09F001E203E1B4
:101D50007F0E836E16D029C43FF428C43EF427C4F6
:101D60003DF426C43CF40401436B426B480E416FC2
:101D7000850E406F0001DFEC09F002E1836801D0BD
:101D8000836A29C43FF428C43EF427C43DF426C422
:101D90003CF42DC443F42CC442F42BC441F42AC4B3
:101DA00040F4DFEC09F003E3100E826E01D0826A8A
:041DB0006ED50300E9
:020000040030CA
:0E0000003FC83E1E0087A1000FC00FE00F405A
:00000001FF
;PIC18F4550
;CRC=F64D  CREATED="12-may.-24 21:30"
